:020000040000FA
:10000000F86F0020C1000000CF1C0000C51C0000DC
:1000100000000000000000000000000000000000E0
:10002000000000000000000000000000D1030000FC
:1000300000000000000000008B03000051290000B8
:100040004D1E000031250000992D00009B2D000061
:10005000C91C00002D2900009D2D0000E12D00008D
:10006000252E0000692E00006B2E00006D2E000072
:10007000CB1C0000CD1C0000752900009D2900004C
:10008000552A00006D2A0000E1200000E320000056
:10009000E5200000E7200000CF170000D117000086
:1000A000B50E000000000000000000002F29000035
:1000B0000000000000000000000000000000000040
:1000C0000148804701480047D1000000410300007B
:1000D00072487349016073487349744A744B754C94
:1000E000754F056814601D601E683D403E40B54276
:1000F00004D104340430A1420DD0F2E70568146045
:100100001D601E683D403E40B542FED104340430BF
:10011000A14200D0E5E76949056814601D601E68CA
:10012000A846674F2F40B946ED0B664F3D406D0224
:100130004F467F19B9464546ED0F634F3D40ED04EC
:100140004F467F19614D2E402F40BE4204D10434EA
:100150000430A14220D0DFE7056814601D601E68EE
:10016000A846574F2F40B946ED0B564F3D406D0204
:100170004F467F19B9464546ED0F534F3D40ED04BC
:100180004F467F19514D2E402F40BE42FED10430C4
:100190000434A14200D0BFE74048464901604C4CBE
:1001A0004C4D4D4E4D4F4E4800684E49096842181F
:1001B000013AD2434C4B1B68934200D00FE03E49BA
:1001C0000140216049490140090A2960484901402C
:1001D000090C316047490140090E39601CE046486E
:1001E0000068464909684218013AD243444B1B68EB
:1001F000934200D00FE03049014021603B4901406B
:10020000090A29603A490140090C31603949014025
:10021000090E396000E0FEE73A4A3B4801681143A5
:1002200001603A48016891430160394A10682649E3
:1002300008431060374A1068374A11684318DB4397
:10024000364A1468A34200D008E04900344A1368D3
:10025000344CA34321400B43136014E0324A10682E
:10026000324A11684318DB43314A1468A34200D074
:1002700008E049002A4A13682A4CA34321400B4353
:10028000136000E07047084A2A4801689143016002
:10029000294A2A480168114301607047E0FF0F00B6
:1002A00055AAAA55000E040020000000E8FF0F0028
:1002B000F0FF0F0000000000FF0000003000000011
:1002C000FF010000FF03000001000000FFFF0F001E
:1002D0002C4201403042014034420140384201404A
:1002E000C00D0400C40D0400CC0D040000FF00008C
:1002F0000000FF00000000FFD00D0400D40D04003A
:10030000DC0D0400C00000008000004084000040BC
:1003100010420140900D0400940D0400980D04005B
:10032000184201401E0000009C0D0400A00D0400B6
:10033000A40D04001C4201400800000028420140B6
:100340000348854600F018FB004800472D47000091
:10035000F86F0020084B19680868203080F309887E
:10036000022080F31488BFF36F8F3FBCAE4608BCF9
:1003700004BC62B61847000014010020EFF310809F
:1003800072B6704780F310887047EFF309800E4B08
:100390001A6820381060F0C044464D4656465F4605
:1003A000F0C008B572B605F035FD62B60CBC116838
:1003B00008681030F0C8A046A946B246BB4680F394
:1003C00009882038F0C8184714010020FEE7FEE72E
:1003D000FEE7FEE7FEE7FEE730B50B4601460020EC
:1003E0002022012409E00D46D5409D4205D31D463B
:1003F0009540491B2546954040191546521E002D33
:10040000F1DC30BD70B500242546002801DA012456
:100410004042002901DA01254942FFF7DDFFAC42E5
:1004200000D04042002C00D0494270BD03460B432F
:100430009B0703D009E008C9121F08C0042AFAD29A
:1004400003E00B780370401C491C521EF9D2704720
:10045000D2B201E00270401C491EFBD2704700225C
:10046000F6E710B513460A4604461946FFF7F0FFB3
:10047000204610BD03460A780270401C491C002A21
:10048000F9D1184670470000F0B5074608465840B5
:1004900087B0C00F049048000E4659004008490834
:1004A000BC1A884105D2384631461E4617460B46CF
:1004B00002465800400810434CD0300D03904005D0
:1004C0005900400D490D0590401A0290402872DAFB
:1004D00018030121000B09050843019004980092BC
:1004E000002805D0019952420020884100920190D5
:1004F000029840210A1A0199009800F087F90546F0
:100500000C466B4607CB00F091F9C0197141039A74
:100510000E0D0023D71756401A467A40164344D092
:10052000049A002A2DD0029A012A039A15DC12059A
:10053000C01A914101263605001C7141D20F059E5B
:10054000D2070093019202962A46234600F08EF9C4
:1005500007B0F0BD38463146FAE71605224A0F4685
:10056000B218C01AB74101210905001C4F410018FB
:100570007F41114618187941E20F10436D1964410B
:1005800013E0E2076D0815436408C2071443039A99
:1005900001261205C01A91413605001C7141CE0793
:1005A000400830434908C01851412A46234600F00C
:1005B00050F9CDE7FFE7049801224000C117121A55
:1005C00000238B4104983146C417381AA141EEE745
:1005D00030B40124E407634030BC55E730B4012453
:1005E000E407614030BC4FE70000E0FFF0B51FB406
:1005F00088B00B990998002448400999C00F490018
:1006000049080991C0070B990090490049080B91CE
:1006100009990898A64608431CD00B990A980843E4
:1006200018D0099801244000420D4800410D099856
:1006300024050003000B204309900B980003000BD6
:1006400020430B9050181C4940180022019014467A
:10065000104605E0002001460DB0F0BD032801DA88
:10066000034600E003239C46C11A0AAE0AE05F007D
:1006700008ADED5B4F00F75B7D430027AA187C4176
:10068000491C5B1E6145F2DD410004AB5A52210456
:10069000120C0A43240C401C0828DFDB019802904E
:1006A0000099704601910090059B049A079906985D
:1006B00000F0DCF8D0E700000DFCFFFFF0B50C46C1
:1006C0005C4085B0E40FE40703944C000026640806
:1006D00059009446490802460296224321D06246B8
:1006E0000A431ED06200570D4A000E032303550D26
:1006F000012402462C492405781B1B0B360B40189D
:1007000023432643614600901C46501AB44103D34C
:100710000098401C009002E0921800985B4100286D
:1007200003DA0020014605B0F0BD002001210905D3
:100730000746864611E064461D46141BB54106D3A4
:100740006546521BB341744607430C43A646CD078A
:1007500040084908284392185B4105460D43EAD1F9
:100760001046184313D06046194650407140084364
:1007700006D06046101AB34106D20122002306E0DB
:1007800000220123DB0702E00122D243531000982C
:1007900074460105381C6141029C039D00196941A2
:1007A00000F057F8BFE70000FD030000F0B51FB4EC
:1007B0000646002082B005464024019100901BE0CF
:1007C000019922460F46304600F0E8F8049A059B4E
:1007D000801A994110D310461946224600F016F8A7
:1007E000361A8F410197224601200021009F00F018
:1007F0000DF838184D4100902046641E0028DFDCBB
:10080000019B00982946324607B0F0BD10B5202A5A
:1008100004DB0146203A9140002010BD9140202386
:100820009C1A0346E3401943904010BD10B5202A9E
:1008300006DBCB170846203A1041C1170B4306E0F0
:100840000B461341D0402024A21A91400843194678
:1008500010BD10B5002B08DA0024401C614192182D
:100860005B411A4301D14008400010BDF0B51FB4F0
:1008700082B005460C0003D0084603F067F902E099
:1008800003F064F920300246009021462846FFF725
:10089000BDFF049B059A04460F46184311430843C5
:1008A00014D0184610431BD0009840210A1A18464D
:1008B000059900F073F805460E46009A05990498CC
:1008C000FFF7A4FF084305D0012004E02046394685
:1008D00007B0F0BD0020C11705430E432C4337433A
:1008E00000990E986305401A7905E40A00220C432A
:1008F000FD0A0A3002D500200146E9E7010510197A
:1009000069410C9C0D9D00196941FFF7A2FFDFE7CB
:100910004A0009030123090B1B0519430A4B10B5B3
:10092000520D9A4202DA0020014610BD064B3433C4
:100930009A4203DC9A1A00F031F810BD034BD2182A
:10094000FFF764FF10BD0000FF030000CDFBFFFFB9
:1009500010B5002904DB0124E40740428C41214604
:10096000002B04DB1C460123DB075242A3419942C2
:1009700000D1904210BD0000064C0125064E05E056
:10098000E36807CC2B430C3C98471034B442F7D3B0
:10099000FFF7DAFC586700008867000010B5202ACE
:1009A00004DB0846203AD040002110BD0B46D3405E
:1009B000D0402024A21A91400843194610BD30B5FA
:1009C0008C180278401C13071B0F01D10378401CC0
:1009D000120906D10278401C03E005780D70401C16
:1009E000491C5B1EF9D101E00B70491C521EFBD162
:1009F000A142E6D3002030BD70B50546002D01D0E0
:100A0000012D00D103E00B490BA003F0A7FD154811
:100A10004468012D06D11021204688430446202039
:100A2000044303E020212046884304460D484460E7
:100A300070BD0000F10200002E2E5C2E2E5C4C6971
:100A4000627261726965735C4C69625F4472697657
:100A500065725C7372635C6C69625F6164632E6370
:100A60000000000000420140012001490862704777
:100A70004042014010B50446002C01D0012C00D1A9
:100A800004E0A121890011A003F068FD002C0FD122
:100A90001948806A072109040840002801D0012074
:100AA00010BD16480068400840001449086005E081
:100AB0001248006801210843104908600F48006887
:100AC0000D494039C8600020EAE700002E2E5C2E58
:100AD0002E5C4C69627261726965735C4C69625F1D
:100AE0004472697665725C7372635C6C69625F61A3
:100AF00064632E63000000004042014010010020AA
:100B000010480068400840000E4908600846006828
:100B10000D49C860002048600B484030406A80089A
:100B200080000949403148620320086200BF06483E
:100B30004030806AC00FC0070028F8D10249403118
:100B400088627047100100200042014070B50446E1
:100B5000002C15D0012C13D0022C11D0032C0FD057
:100B6000042C0DD0052C0BD0062C09D0072C07D057
:100B7000082C05D0092C03D00A2C01D00B2C00D155
:100B800004E0E121890004A003F0E8FC0D48A10085
:100B90004518286800B270BD2E2E5C2E2E5C4C6964
:100BA000627261726965735C4C69625F44726976F6
:100BB00065725C7372635C6C69625F6164632E630F
:100BC00000000000704201400448006AC007C00FE6
:100BD000002801D0012070470020FCE7404201407E
:100BE00070B504460D46002D01D0012D00D104E062
:100BF0007321C9000EA003F0B1FCA007800F0028EC
:100C000004D0A0088000002800D103E0134908A008
:100C100003F0A4FC012D05D11148406A204310497E
:100C2000486204E00E48406AA0430D49486270BD26
:100C30002E2E5C2E2E5C4C69627261726965735C4B
:100C40004C69625F4472697665725C7372635C6C56
:100C500069625F6164632E63000000009903000015
:100C60004042014070B5044600252068002804D0A9
:100C70000121C9072068884200D103E0712177A0D3
:100C800003F06CFC6068002802D06068012800D185
:100C900003E0722171A003F061FCE068002849D0F4
:100CA000FF210131E068884244D04900E068884271
:100CB00040D003210902E06888423BD0012189022B
:100CC000E068884236D005210902E068884231D0C8
:100CD00003214902E06888422CD007210902E0681C
:100CE000884227D00121C902E068884222D0092128
:100CF0000902E06888421DD005214902E068884267
:100D000018D00B210902E068884213D00321890220
:100D1000E06888420ED00D210902E068884209D0BF
:100D200007214902E068884204D00F210902E068E7
:100D3000884200D103E0732148A003F00FFCA068B3
:100D4000002804D001210903A068884200D103E0F3
:100D5000742142A003F002FC4B48856A4B480540D1
:100D6000A168E068084305432068002837D160681F
:100D7000002830D12069002820D0206901281DD00A
:100D8000206902281AD02069032817D02069042876
:100D900014D02069052811D0206906280ED02069BA
:100DA00007280BD02069082808D02069092805D019
:100DB00020690A2802D020690B2800D103E0842191
:100DC00026A003F0CBFBF021284688430546206986
:100DD0000001054337E001204005054333E060682A
:100DE00000282DD12069002820D0206901281DD09D
:100DF000206902281AD02069032817D02069042806
:100E000014D02069052811D0206906280ED0206949
:100E100007280BD02069082808D02069092805D0A8
:100E200020690A2802D020690B2800D103E0912113
:100E30000AA003F093FB2D092D012069054302E070
:100E400001200005054300BF0F48806AC00FC0079E
:100E50000028F9D10C48856270BD00002E2E5C2E52
:100E60002E5C4C69627261726965735C4C69625F89
:100E70004472697665725C7372635C6C69625F610F
:100E800064632E63000000004042014000E0C8FFA0
:100E900000BF0748806AC00FC0070028F9D1044886
:100EA000806A0121C9070843014988627047000030
:100EB0004042014010B5FFF787FE012807D1FFF738
:100EC000D3FD05490868FFF741FE034988800120EA
:100ED0000249087010BD0000DC000020D80000208E
:100EE0000EB52A482A49012200230092019102905E
:100EF000802228A12A4805F08BF92A490860084673
:100F00000068002802D128A002F010FE2E482F49C8
:100F10000422002300920191029080221DA12C48FE
:100F200005F076F92B49086008460068002802D1D0
:100F300029A002F0FBFD2F482F4902220023009236
:100F400001910290802213A12C4805F061F92C49EF
:100F5000086008460068002802D11FA002F0E6FDE4
:100F600028482949032200230092019102908022FF
:100F700026A1294805F04CF928490860284800684E
:100F800004F020FE04F072FC0EBD0000A858002002
:100F9000A8560020746573745F5461736B00000081
:100FA0001D540000A0010020746573745F546173C8
:100FB0006B5F48616E646C65206372656174652067
:100FC00066616C6965640A00FC5A0020FC580020C8
:100FD00089550000A4010020746573745F54617327
:100FE0006B206372656174652066616C6965640A73
:100FF00000000000505D0020505B002041530000C5
:10100000A8010020A45F0020A45D00206D6573731B
:101010006167655461736B00E5470000AC01002017
:101020009801002070B504462078002805D020687B
:10103000000A0002002800D103E06D21F3A003F0B4
:101040008DFA2078C007C00F002812D0FA48006837
:1010500008218843F8490860084600681021884341
:10106000F549086008460068F449C8600020F44962
:101070004860F248806A40218843F0498862084607
:10108000806880218843ED498860082120680840F5
:10109000002819D0206A802802D0206A002800D1B8
:1010A00003E08021D9A003F059FAE34800688021C9
:1010B0008843E1490860206A09680843DE490860FE
:1010C00008460068DD49C860022120680840002801
:1010D00064D0A068202802D0A068002800D103E0D6
:1010E0008B21CAA003F03AFAE068202802D0E06819
:1010F000002800D103E08C21C4A003F02FFA20695E
:10110000002814D02069012811D0206902280ED0AF
:10111000206903280BD02069042808D020690528FD
:1011200005D02069062802D02069072800D103E0F5
:101130008D21B6A003F012FAC048856880212846A8
:1011400088430546BD488560E06820281CD1BA4820
:10115000006820210843B849086008460068B7497C
:10116000C8600846456AED08ED0020690543084659
:101170004562B44885682021284688430546A06812
:101180000543B048856009E0AB48006820218843EA
:10119000A949086008460068A849C8600421206879
:1011A0000840002877D06069002802D060691028C4
:1011B00000D103E0B22195A003F0D0F9A069402846
:1011C00002D0A069002800D103E0B3218FA003F072
:1011D000C5F9E069602820D0E06968281DD0E06981
:1011E00070281AD0E069782817D0E069002814D058
:1011F000E069082811D0E06910280ED0E0691828AD
:101200000BD0E069202808D0E069282805D0E069E3
:10121000302802D0E069382800D103E0B4217BA057
:1012200003F09CF9A06940282BD183480068402135
:10123000084381490860084600688049C86008463C
:10124000456A7821284688430546E06905437B487E
:1012500045626069102809D17748006880210843F9
:1012600075490860084600687449C8607548856813
:10127000102128468843054660690543714885600A
:1012800009E06D480068402188436B4908600846C2
:1012900000686A49C860202120680840002822D0E0
:1012A000606A002802D0606A022800D103E0DB21D6
:1012B00056A003F053F9A06A002802D0A06A0128C2
:1012C00000D103E0DC2151A003F048F95D488568B6
:1012D0000221284688430546606A054359488560CF
:1012E000A06A01F027F92078C007C00F002867D056
:1012F000606800280BD06068012808D06068022868
:1013000005D06068032802D06068042800D103E09B
:10131000EB213EA003F022F96068002803D1484980
:10132000606848604CE06068012814D14248006859
:101330008021084340490860084600683F49C8606A
:1013400000BF4048C068082108400028F9D03C4947
:101350006068486034E06068022815D1364800684B
:101360004021084334490860084600683349C86092
:1013700000BF324840304069C007C00F0028F8D095
:101380002F49606848601BE06068042815D12A482E
:10139000006820210843284908600846006827495A
:1013A000C86000BF2548403040690221084000283D
:1013B000F8D023496068486002E0214960684860CD
:1013C000402120680840002811D0E06A002805D09C
:1013D000FF210231E06A884200D204E0FF21293176
:1013E0000AA003F0BBF8E06A401E1549886080211E
:1013F00020680840002830D0206B002824D0FF212E
:101400000231206B88421FD223E000002E2E5C2E7A
:101410002E5C4C69627261726965735C4C69625FD3
:101420004472697665725C7372635C6C69625F6357
:101430006C6B2E6300000000100100200042014090
:10144000003E014000400140FF213131034803F0DC
:1014500085F8206B401E0249C86070BD0C14000066
:10146000003E0140FEB57748406847077F0F75484A
:101470008068C0B2401C01903B0002F07EFB050476
:101480000B127E95DD00192080040199FEF7A4FF60
:101490000446D3E0192080040199FEF79DFF04461D
:1014A000CCE06948406A78210840009000984107E4
:1014B000490F00295DD1C010030002F05EFB10252A
:1014C0002C333A40474D545A5A5A5A0910171E5A4B
:1014D0001920C0040199FEF77FFF04464BE07D20F0
:1014E00040040199FEF778FF044644E04B20800455
:1014F0000199FEF771FF04463DE0AF2040040199D9
:10150000FEF76AFF044636E0192000050199FEF750
:1015100063FF04462FE0E12040040199FEF75CFFE1
:10152000044628E07D2080040199FEF755FF04461B
:1015300021E046480199FEF74FFF04461BE04B208F
:10154000C0040199FEF748FF044614E040480199A1
:10155000FEF742FF04460EE0AF2080040199FEF73B
:101560003BFF044607E03B480199FEF735FF044680
:1015700001E0002400BF00BF60E0374880698607B3
:10158000B60F002E06D10120C0030199FEF724FFFB
:10159000044608E0012E05D170030199FEF71CFFF7
:1015A000044600E0002449E02748406A45076D0FE3
:1015B0002B0002F0E2FA08050C131A21282F363D01
:1015C000192000050199FEF707FF044632E01920B3
:1015D000C0040199FEF700FF04462BE019208004A7
:1015E0000199FEF7F9FE044624E019204004019910
:1015F000FEF7F2FE04461DE0192000040199FEF7F3
:10160000EBFE044616E01920C0030199FEF7E4FE44
:1016100004460FE0192080030199FEF7DDFE044621
:1016200008E0192040030199FEF7D6FE044601E0C8
:10163000002400BF00BF01E0002400BF00BF20461F
:10164000FEBD0000003E01400042014000002602B5
:1016500000008A020000EE024048014010B5FFF78A
:1016600001FF04460348C068C0B2411C2046FEF793
:10167000B3FE10BD003E014010B50446002C00DB57
:1016800003E07E2103A002F069FF204602F084FA05
:1016900010BD00002E2E5C2E2E5C4C6962726172B1
:1016A0006965735C434D5349535C64657669636552
:1016B0005C6C69625F636F727465782E6300000012
:1016C00010B50446002C00DB03E0372103A002F034
:1016D00045FF204602F06CFA10BD00002E2E5C2E55
:1016E0002E5C4C69627261726965735C434D53494B
:1016F000535C6465766963655C6C69625F636F7295
:101700007465782E6300000070B505460C46002D08
:1017100000DB03E021210AA002F020FF042C00D20C
:1017200003E0222106A002F019FF284602F034FA55
:101730002146284602F04CFA284602F039FA70BDDC
:101740002E2E5C2E2E5C4C69627261726965735C30
:10175000434D5349535C6465766963655C6C6962AB
:101760005F636F727465782E6300000070B5044685
:101770002546681E0949884201D901200CE0681EEF
:10178000074948610321081F02F022FA002004499A
:10179000886107200861002070BD0000FFFFFF0086
:1017A00000E000E000B58DB0C5200090022001905F
:1017B00010210791102005904021069101200B90E7
:1017C00002200C906846FFF72DFC0DB000BD70475D
:1017D00070470000F8B505460C462D48854200D1FB
:1017E00003E05B212BA002F0B9FE208880B2002824
:1017F00005D02068000C0004002800D103E05C2123
:1018000024A002F0ABFE60680C280ED060680228AD
:101810000BD06068032808D060680B2805D060688A
:101820000A2802D06068042800D103E05D2119A0D5
:1018300002F094FE02216068084000280CD0EE6897
:1018400030462168884306462079C007C00F00282B
:1018500001D020680643EE602E6830462168884338
:1018600006466F6838462168884307460821606845
:101870000840002801D02068074304216068084020
:10188000002801D0206806432E606F60F8BD00007C
:10189000104001402E2E5C2E2E5C4C6962726172EB
:1018A0006965735C4C69625F4472697665725C73EA
:1018B00072635C6C69625F6770696F2E6300000021
:1018C00070B505460C462048854200D103E09E21B4
:1018D0001EA002F043FE012C26D0022C24D0042CA2
:1018E00022D0082C20D0102C1ED0202C1CD0402C14
:1018F0001AD0802C18D0FF200130844214D0400030
:10190000844211D0400084420ED0400084420BD06B
:101910004000844208D04000844205D04000844208
:1019200002D04000844200D103E09F2107A002F0D2
:1019300015FE6E69304620400646002E01D001207B
:1019400070BD0020FCE70000104001402E2E5C2EF0
:101950002E5C4C69627261726965735C4C69625F8E
:101960004472697665725C7372635C6C69625F670E
:1019700070696F2E63000000F8B505460C463948C3
:1019800085420FD03748203085420BD03548403053
:10199000854207D033486030854203D031488030DB
:1019A000854200D103E024212FA002F0D7FD20883A
:1019B00080B2002805D02068000C0004002800D167
:1019C00003E0252128A002F0C9FD60680C280ED094
:1019D000606802280BD06068032808D060680B2874
:1019E00005D060680A2802D06068042800D103E0AE
:1019F00026211DA002F0B2FD1A488030854203D195
:101A00000421206888432060022160680840002883
:101A10000CD0EE6830462168884306462079C0071E
:101A2000C00F002801D020680643EE602E683046C3
:101A30002168884306466F68384621688843074610
:101A4000082160680840002801D02068074304216D
:101A500060680840002801D0206806432E606F604F
:101A6000F8BD0000200000402E2E5C2E2E5C4C693C
:101A7000627261726965735C4C69625F4472697617
:101A800065725C7372635C6C69625F6770696F2E0C
:101A90006300000070B505460C46284885420FD00B
:101AA0002648203085420BD024484030854207D05C
:101AB00022486030854203D020488030854200D1E2
:101AC00003E0CF211EA002F049FD012C26D0022CFC
:101AD00024D0042C22D0082C20D0102C1ED0202C56
:101AE0001CD0402C1AD0802C18D0FF20013084420A
:101AF00014D04000844211D0400084420ED04000F7
:101B000084420BD04000844208D04000844205D07B
:101B10004000844202D04000844200D103E0D02142
:101B200007A002F01BFDAE68304620400646002E9E
:101B300001D0012070BD0020FCE700002000004023
:101B40002E2E5C2E2E5C4C69627261726965735C2C
:101B50004C69625F4472697665725C7372635C6C37
:101B600069625F6770696F2E6300000082688A4354
:101B70008260704782680A438260704770B504468D
:101B80000D4616461C4884420FD01B482030844224
:101B90000BD019484030844207D017486030844247
:101BA00003D015488030844200D104E0FF21563133
:101BB00012A002F0D3FCA8B2002804D0280C000424
:101BC000002800D104E0FF2157310CA002F0C6FC30
:101BD000012E01D0002E00D104E0FF21583107A0D2
:101BE00002F0BCFC012E03D1A0682843A06002E0F3
:101BF000A068A843A06070BD200000402E2E5C2E7F
:101C00002E5C4C69627261726965735C4C69625FDB
:101C10004472697665725C7372635C6C69625F675B
:101C200070696F2E630000001CB5022001902248ED
:101C300001F0A2F909200003009069461F48FFF750
:101C40009BFE009881B21D48FFF790FF0D20000316
:101C50000090694619484030FFF78EFE05210903C0
:101C600016484030FFF786FF0121C9031348403072
:101C7000FFF77CFF1520C001009069460F48203017
:101C8000FFF77AFE0521C9010C482030FFF772FFEB
:101C90000C20019001200090694608488030FFF731
:101CA0006BFE0C2001905D20C00000906946044846
:101CB000FFF790FD1CBD000000180140200000400F
:101CC0001040014000BFFEE770477047704700BFFB
:101CD000FEE7000010B50446A0B2002804D0200C96
:101CE0000004002800D103E0FA2103A002F036FC32
:101CF0000C48846210BD00002E2E5C2E2E5C4C69B8
:101D0000627261726965735C4C69625F4472697684
:101D100065725C7372635C6C69625F706D752E6373
:101D2000000000000040014010B50446012C26D000
:101D3000022C24D0042C22D0082C20D0102C1ED011
:101D4000202C1CD0402C1AD0802C18D0FF20013021
:101D5000844214D04000844211D0400084420ED00E
:101D6000400084420BD04000844208D040008442AE
:101D700005D04000844202D04000844200D103E0FC
:101D8000E42106A002F0EAFB0F48806A2040002808
:101D900001D0012010BD0020FCE700002E2E5C2E9B
:101DA0002E5C4C69627261726965735C4C69625F3A
:101DB0004472697665725C7372635C6C69625F70B1
:101DC0006D752E63000000000040014070B50446B0
:101DD0000D460D202040002805D00D2120468843C7
:101DE000002800D103E07F210CA002F0B7FB002DFA
:101DF00001D0012D00D103E0802108A002F0AEFB4C
:101E0000012D05D11048806820430F49886004E007
:101E10000D488068A0430C49886070BD2E2E5C2E52
:101E20002E5C4C69627261726965735C4C69625FB9
:101E30004472697665725C7372635C6C69625F7030
:101E40006D752E63000000000040014010B5202099
:101E5000FFF76AFF00280AD02020FFF73BFF012090
:101E60002A4908702A4908702AA001F05FFE402024
:101E7000FFF75AFF00280AD04020FFF72BFF012070
:101E8000294908702949087029A001F04FFE8020D7
:101E9000FFF74AFF002805D08020FFF71BFF29A08D
:101EA00001F044FE0820FFF73FFF00282CD0082057
:101EB000FFF710FF02F00AFC022803D002F006FC34
:101EC000002809D1012003F051FA002023490860BD
:101ED00003F0F2FA03F0F8FA20480068002803D172
:101EE0001F49086003F0E8FA1C480068401C1B49C1
:101EF0000860084600687D21C900884204D9002096
:101F00001649086003F0E0FA10BD00006A000020E6
:101F100060000020504D552C20494F413520455838
:101F200049540D0A000000006900002061000020F3
:101F3000504D552C20494F413620455849540D0AE3
:101F4000000000006D616368696E6520697320732D
:101F500074616E64696E670D0A0000005400002011
:101F600050000020F8B504460D46002600200090E1
:101F7000012C26D0022C24D0042C22D0082C20D0D6
:101F8000102C1ED0202C1CD0402C1AD0802C18D005
:101F9000FF200130844214D04000844211D0400020
:101FA00084420ED0400084420BD04000844208D0CE
:101FB0004000844205D04000844202D04000844268
:101FC00000D104E0FF21133139A002F0C7FA002D3F
:101FD00009D0012D07D0022D05D0032D03D0042DEB
:101FE00001D0052D00D104E0FF21143130A002F012
:101FF000B5FA58E00120B040204000900098002839
:1020000050D03648006900990843344908610846B1
:10201000406900990843314948610846076A7100E0
:1020200003208840394681430F462B0001F0A5FD6F
:10203000060506111C27320400BF30E027488169DD
:102040000098814325488161710001208840074341
:1020500025E0224880690099084320498861710081
:102060000120884007431AE01C4881690098814399
:102070001A48816171000220884007430FE0174829
:1020800080690099084315498861710002208840E1
:10209000074304E0710003208840074300BF00BFEE
:1020A0000E480762761C2046F0400028A2D1F8BDF9
:1020B0002E2E5C2E2E5C4C69627261726965735CB7
:1020C0004C69625F4472697665725C7372635C6CC2
:1020D00069625F706D752E63000000000040014072
:1020E000704770477047704770B505460C462748E3
:1020F00085420BD025482030854207D02348403008
:10210000854203D021486030854200D103E0272179
:102110001FA002F023FA2068002808D02068402879
:1021200005D02068802802D02068C02800D103E0B4
:10213000282117A002F012FA6068002808D0606811
:10214000102805D06068202802D06068302800D1AF
:1021500003E029210EA002F001FAA068082802D0AD
:10216000A068002800D103E02A2109A002F0F6F9B6
:102170002E68F82130468843064661682068084387
:10218000A168084306432E6070BD0000002901408D
:102190002E2E5C2E2E5C4C69627261726965735CD6
:1021A0004C69625F4472697665725C7372635C6CE1
:1021B00069625F70776D2E630000000010B5044601
:1021C0000C4884420BD00B482030844207D0094889
:1021D0004030844203D007486030844200D104E09C
:1021E000FF214B3104A002F0B9F920680421084313
:1021F000206010BD002901402E2E5C2E2E5C4C6903
:10220000627261726965735C4C69625F447269767F
:1022100065725C7372635C6C69625F70776D2E636C
:102220000000000070B505460C46234885420BD0DF
:1022300021482030854207D01F484030854203D0D6
:102240001D486030854200D103E089211BA002F0C7
:1022500085F96068002814D06068202811D0606873
:1022600040280ED0606860280BD06068802808D0B5
:102270006068A02805D06068C02802D06068E028A7
:1022800000D103E08A210DA002F068F901210904C0
:102290002068884200D203E08B2108A002F05EF99A
:1022A000EE68E12130468843064660680643EE60EA
:1022B0002068A86170BD0000002901402E2E5C2E10
:1022C0002E5C4C69627261726965735C4C69625F15
:1022D0004472697665725C7372635C6C69625F708C
:1022E000776D2E630000000070B505460C4623484C
:1022F00085420BD021482030854207D01F4840300E
:10230000854203D01D486030854200D103E0A921F9
:102310001BA002F023F96068002814D06068202810
:1023200011D0606840280ED0606860280BD06068CB
:10233000802808D06068A02805D06068C02802D036
:102340006068E02800D103E0AA210DA002F006F9A0
:10235000012109042068884200D203E0AB2108A0D3
:1023600002F0FCF82E69E121304688430646606899
:1023700006432E612068E86170BD0000002901401D
:102380002E2E5C2E2E5C4C69627261726965735CE4
:102390004C69625F4472697665725C7372635C6CEF
:1023A00069625F70776D2E6300000000F8B5044627
:1023B0000D4600262807000F002804D02809000138
:1023C000002800D104E0FF2186311EA002F0C6F8EB
:1023D000002C15D0012C13D0022C11D0042C0FD0BE
:1023E000052C0DD0062C0BD0082C09D0092C07D0B9
:1023F0000A2C05D00C2C03D00D2C01D00E2C00D1B2
:1024000004E0FF2187310FA002F0A8F81848076BFD
:1024100010E02846F040C007C00F002809D0B100E6
:102420000F208840394681430F46B100204688403E
:102430000743761C2846F0400028EAD10C48076381
:10244000F8BD00002E2E5C2E2E5C4C69627261720B
:102450006965735C4C69625F4472697665725C732E
:1024600072635C6C69625F70776D2E6300000000C0
:10247000C0290140F8B504460D461646204884425E
:102480000BD01F482030844207D01D484030844282
:1024900003D01B486030844200D104E0FF21A83102
:1024A00018A002F05BF8002D03D0012D01D0022D01
:1024B00000D104E0FF21A93112A002F04FF8002E54
:1024C00001D0012E00D104E0FF21AA310DA002F0BD
:1024D00045F8A900204608300818009000980768C1
:1024E0007F087F00012E02D17002074304E0012122
:1024F000490238468843074600980760F8BD000047
:10250000002901402E2E5C2E2E5C4C696272617295
:102510006965735C4C69625F4472697665725C736D
:1025200072635C6C69625F70776D2E6300000000FF
:102530007047000070B50446002C01D0012C00D17A
:1025400003E00C490CA002F009F816488569AD08B3
:10255000AD0028462043054600F026F8002000F094
:102560002DF810488561012000F028F800F01CF8D3
:1025700070BD00006D0200002E2E5C2E2E5C4C699A
:10258000627261726965735C4C69625F44726976FC
:1025900065725C7372635C6C69625F7274632E63F4
:1025A000000000004048014000BF0348806802214D
:1025B00008400028F9D170474048014010B5044652
:1025C000002C01D0012C00D103E01D2108A001F056
:1025D000C5FF002C05D0114811494860C0438860F0
:1025E00004E00E480E4948604042886010BD00007B
:1025F0002E2E5C2E2E5C4C69627261726965735C72
:102600004C69625F4472697665725C7372635C6C7C
:1026100069625F7274632E6300000000A55AA55AB8
:1026200040480140F8B504460D46164600BF0E4826
:102630000078002801D101F099F800BFEFF3108075
:102640000746012080F3108800BF00BF32462946AC
:10265000204600F00BF80090F8B280F3108800BF1D
:1026600000BF0098F8BD0000A0440020F7B582B07C
:102670000746164603980190182078431B494018D6
:10268000009000984069002804D0012811D0022849
:1026900026D11EE0009801F0A1F80546B54201D20E
:1026A000002405E0344632460199009801F019FAF9
:1026B00018E0009801F092F80546B54201D228468C
:1026C00000E03046044622460199009801F009FADC
:1026D00008E032460199009801F0C6F9044601E08D
:1026E000002400BF00BF204605B0F0BDB844002064
:1026F0000FB438B5044606A800906A4620460599EE
:1027000000F008F8054600200090284638BC08BCB8
:1027100004B01847F7B59AB00D46144602A81590B4
:1027200040201690002017901A98199000201890B9
:1027300000BF2E786D1C002E00D1E4E0252E79D14B
:1027400000270120149000BF2E78232E12D02B2EAC
:102750000CD02D2E02D0302E10D103E001200743E3
:102760006D1C0EE0022007436D1C0AE004200743A5
:102770006D1C06E0082007436D1C02E00020149049
:1027800000BF00BF14980028DED1129000BF2E7841
:10279000302E01DB392E00DD08E06D1C0A21129875
:1027A00048433146303940181290F0E700BF00200E
:1027B00013902E782E2E11D16D1C00BF2E78302E46
:1027C00001DB392E00DD08E06D1C0A211398484317
:1027D0003146303940181390F0E700BF2E7800BF23
:1027E0006C2E01D0682E02D16D1C2E7800E000E026
:1027F000F6E700BF702E63D008DC252E72D0582E6D
:1028000038D0632E09D0642E71D114E0732E40D0DD
:10281000752E1FD0782E6AD12BE02168081D20600C
:10282000086814901498C0B2019015A8019901F09D
:10283000F9F85DE05FE02168081D206008681490E9
:102840001298019700900A2215A8139B149900F082
:10285000D3FF4DE02168081D20600868149012988D
:10286000019700900A2215A8139B149901F04CF8C7
:102870003EE000BF2168081D20600868149012988F
:1028800001970090102215A8139B149901F03CF8B1
:102890002EE02168081D20600868019000BF0198A3
:1028A00006780198401C0190002E00D106E03146C8
:1028B00015A801F0B7F818980028F0DA00BF17E063
:1028C0002168081D206008681490002008210B462C
:1028D00010220091019015A8149901F015F807E055
:1028E00000E004E0252115A801F09CF800E000BFFD
:1028F00000BF6D1C03E0314615A801F093F818984D
:10290000002800DB15E700BF189800280BDD17989A
:10291000002804D002A9179A1A98FFF783FE179986
:1029200018984018189018981DB0F0BD704770475F
:1029300010B5FEF793FE0446E1214902FDF74CFD78
:10294000024908630120886210BD00008018014020
:1029500010B5FDF713FD044603F0B6FC002803D0C4
:1029600001200007024948602046FDF70BFD10BD1D
:1029700000ED00E010B5074800F034F9002807D05A
:1029800005480068401C04490860024800F07AF8D5
:1029900010BD0000002801405000002010B526485E
:1029A00000F020F9002845D0234800F06BF82348B8
:1029B0000078002813D022480068401E2049086093
:1029C0000846006800280AD120211E48FEF778FF3B
:1029D00000201A4908707D20C000194908601A4873
:1029E0000078002826D019480068401E1749086062
:1029F0000846006800281DD140211248FEF760FFFC
:102A0000002810D1012149021148FFF743F800289E
:102A100001D1012000E000200446224601214902A4
:102A20000B48FFF7ABF80020074908707D20C00075
:102A30000649086010BD0000202801406000002009
:102A40005800002010400140610000205C00002080
:102A50004000004010B5044800F0C4F8002802D03F
:102A6000014800F00FF810BD2028014010B50448BF
:102A700000F0B8F8002802D0014800F003F810BDBB
:102A80006028014010B504460B4884420BD00A4828
:102A90002030844207D008484030844203D00648A2
:102AA0006030844200D103E08A2104A001F056FD89
:102AB0000120E06010BD0000002801402E2E5C2E99
:102AC0002E5C4C69627261726965735C4C69625F0D
:102AD0004472697665725C7372635C6C69625F7480
:102AE0006D722E630000000070B504460D46144858
:102AF00084420BD012482030844207D01048403026
:102B0000844203D00E486030844200D103E09B2110
:102B10000CA001F023FD002D01D0012D00D103E018
:102B20009C2108A001F01AFD012D04D1206801218B
:102B30000843206003E0206840084000206070BD2A
:102B4000002801402E2E5C2E2E5C4C696272617250
:102B50006965735C4C69625F4472697665725C7327
:102B600072635C6C69625F746D722E6300000000BA
:102B700010B504460F4884420BD00E4820308442E2
:102B800007D00C484030844203D00A486030844269
:102B900000D103E01C2108A001F0E0FC20684008FF
:102BA000400020600120E06000202060A0606060A4
:102BB00010BD0000002801402E2E5C2E2E5C4C69BA
:102BC000627261726965735C4C69625F44726976B6
:102BD00065725C7372635C6C69625F746D722E63A4
:102BE0000000000010B504460E4884420BD00D488A
:102BF0002030844207D00B484030844203D009483B
:102C00006030844200D103E0792107A001F0A6FCE6
:102C1000E068C007C00F002801D0012010BD0020CF
:102C2000FCE70000002801402E2E5C2E2E5C4C6933
:102C3000627261726965735C4C69625F4472697645
:102C400065725C7372635C6C69625F746D722E6333
:102C50000000000070B504460D46144884420BD0B5
:102C600012482030844207D010484030844203D0BC
:102C70000E486030844200D103E063210CA001F0D3
:102C80006DFC002D01D0012D00D103E0642108A0CE
:102C900001F064FC012D04D1206808210843206064
:102CA00003E0206808218843206070BD00280140AF
:102CB0002E2E5C2E2E5C4C69627261726965735CAB
:102CC0004C69625F4472697665725C7372635C6CB6
:102CD00069625F746D722E630000000070B5044677
:102CE0000D461C4884420BD01A482030844207D03D
:102CF00018484030844203D016486030844200D1E6
:102D000003E03B2114A001F029FC6868002802D0F0
:102D10006868042800D103E03C210FA001F01EFCEC
:102D2000A868002802D0A868022800D103E03D214D
:102D300009A001F013FC26680621304688430646A8
:102D4000A9686868084306432660286860602868A8
:102D5000A06070BD002801402E2E5C2E2E5C4C69B8
:102D6000627261726965735C4C69625F4472697614
:102D700065725C7372635C6C69625F746D722E6302
:102D8000000000000A2003490880012048800A2032
:102D900088807047740000207047704710B5002489
:102DA00020210E4800F02EF9002805D020210B48E4
:102DB00000F09AF800F08EFC0221084800F022F999
:102DC00000280AD00221054800F08EF8034800F0E0
:102DD00069FA0446204600F0E3FA10BD00180140ED
:102DE00010B5002420210E4800F00CF9002805D071
:102DF00020210B4800F078F800F02CFC0221084854
:102E000000F000F900280AD00221054800F06CF813
:102E1000034800F047FA0446204600F02BFB10BDA3
:102E20002018014010B5002420210E4800F0EAF8D7
:102E3000002805D020210B4800F056F800F0CAFB0E
:102E40000221084800F0DEF800280AD002210548D7
:102E500000F04AF8034800F025FA0446204600F046
:102E60000BFB10BD401801407047704710B5202182
:102E70001B4800F0C7F8002818D02021184800F09F
:102E800033F81848417E007E401E81420BDA154817
:102E9000407E401CC2B2134842760830815C104824
:102EA00000F03AFA02E000210E48417602210C4877
:102EB00000F0A8F8002812D00221094800F014F808
:102EC000074800F0EFF9014606482030027B007BFE
:102ED000401CC3B2034820300373001F815410BD4F
:102EE000A01801404802002070B504460D4616485F
:102EF000844213D01448203084420FD0124840300E
:102F000084420BD010486030844207D00E48803095
:102F1000844203D00C48A030844200D103E0F82161
:102F20000AA001F01BFB3E202840002805D03E21CE
:102F300028468843002800D103E0F92103A001F0CE
:102F40000DFBE56070BD0000001801402E2E5C2EC8
:102F50002E5C4C69627261726965735C4C69625F78
:102F60004472697665725C7372635C6C69625F75EA
:102F70006172742E6300000038B504460020009092
:102F80001448844213D01348203084420FD0114893
:102F9000403084420BD00F486030844207D00D4847
:102FA0008030844203D00B48A030844200D103E03B
:102FB000212109A001F0D2FA206800900098401C5D
:102FC00000903F20E0603C20606000202061606154
:102FD000A06038BD001801402E2E5C2E2E5C4C697E
:102FE000627261726965735C4C69625F4472697692
:102FF00065725C7372635C6C69625F756172742E7A
:103000006300000070B504460D461948844213D091
:103010001748203084420FD01548403084420BD0EE
:1030200013486030844207D011488030844203D076
:103030000F48A030844200D103E0DD210DA001F053
:103040008DFA202D07D0102D05D0082D03D0042D8A
:1030500001D0022D00D103E0DE2106A001F07EFAAE
:10306000E0682840002801D0012070BD0020FCE766
:10307000001801402E2E5C2E2E5C4C69627261722B
:103080006965735C4C69625F4472697665725C73F2
:1030900072635C6C69625F756172742E630000001C
:1030A00070B504460D4616461F48844213D01E488C
:1030B000203084420FD01C48403084420BD01A4844
:1030C0006030844207D018488030844203D01648CC
:1030D000A030844200D103E0C02114A001F03EFAE8
:1030E000FF20B9302840002806D0FF21B9312846FA
:1030F0008843002800D103E0C1210CA001F02EFA82
:10310000002E01D0012E00D103E0C22107A001F062
:1031100025FA012E03D1A0682843A06002E0A06830
:10312000A843A06070BD0000001801402E2E5C2E48
:103130002E5C4C69627261726965735C4C69625F96
:103140004472697665725C7372635C6C69625F7508
:103150006172742E63000000FEB505460C464548BA
:10316000854213D04348203085420FD0414840303B
:1031700085420BD03F486030854207D03D488030C3
:10318000854203D03B48A030854200D103E04C216A
:1031900039A001F0E3F920788007800F002804D0DF
:1031A000206880088000002802D02068002800D114
:1031B00003E04D2130A001F0D1F9606800280BD068
:1031C0006068042808D06068082805D060680C286A
:1031D00002D06068002800D103E04E2126A001F053
:1031E000BDF9A068002802D0A068022800D103E041
:1031F0004F2121A001F0B2F9E068002802D0E06878
:10320000012800D103E050211BA001F0A7F9012102
:1032100009052069884200D203E0512116A001F07F
:103220009DF9AF68BF08BF00206807436869009038
:103230000098000900010090A16860680843E168F7
:10324000084300990843009000986861FEF706FA69
:10325000019021690198FDF7BFF8064621690198A0
:10326000FDF7BAF820694008814200D9761C2E612A
:10327000AF60FEBD001801402E2E5C2E2E5C4C6906
:10328000627261726965735C4C69625F44726976EF
:1032900065725C7372635C6C69625F756172742ED7
:1032A0006300000010B504460F48844213D00E4856
:1032B000203084420FD00C48403084420BD00A4862
:1032C0006030844207D008488030844203D00648EA
:1032D000A030844200D104E0FF21153103A001F0A9
:1032E0003DF92068C0B210BD001801402E2E5C2EA2
:1032F0002E5C4C69627261726965735C4C69625FD5
:103300004472697665725C7372635C6C69625F7546
:103310006172742E6300000070B504460D460F48BC
:10332000844213D00D48203084420FD00B484030E7
:1033300084420BD009486030844207D0074880306F
:10334000844203D00548A030844200D104E0FF212C
:10335000083103A001F002F9256070BD001801409A
:103360002E2E5C2E2E5C4C69627261726965735CF4
:103370004C69625F4472697665725C7372635C6CFF
:1033800069625F756172742E630000004B21C90190
:1033900001610021C16001604160816070470000EF
:1033A00038B5054600242C4628480078002806D069
:1033B00001280ED0022816D0032844D122E05A2C2E
:1033C00003D101202149087002E000201F49087044
:1033D0003AE0A52C03D102201C49087002E000202D
:1033E0001A49087030E0202C08DC032017490870C7
:1033F0000020174908701748847002E00020134924
:10340000087021E0124801780078401C104A1070C2
:103410001048001D4454001F8078114609788842E6
:103420000DD10020094908700A48807900900948A8
:1034300043790279817808A000F078FB02E003204C
:103440000249087000E000BF00BF38BD0001002045
:10345000FF00002078020020646174612025303272
:103460007820253032782025303278202530327887
:103470000A0000007047000038B5054600242C46BD
:103480003F480078030000F078FB05041520365A09
:103490007700552C08D10120394908703948007847
:1034A00000193849087004E0002036490870344992
:1034B000087062E034488470022031490870314855
:1034C000007800192F49087057E0102C0DDC0320FC
:1034D0002B49087000202D4908702B48048029488A
:1034E000007800192749087004E000202549087079
:1034F0002349087041E025480078102803DD24A006
:1035000000F014FB38BD214801780078401C1F4AA8
:1035100010701D48001D44541A48007800191949BC
:1035200008701948008811460978884203D10420A0
:103530001349087002E00320114908701DE011488A
:10354000017819A000F0F2FA0E480078A04212D1DA
:1035500000200C4908700A4908700B4880780A4915
:10356000087108480078009008464379027901887C
:1035700010A000F0DBFA00E000BF00BF00BFC1E711
:103580000601002007010020F202002005010020B2
:103590006261747465727944617461206F766572DA
:1035A000666C6F770A0000004368736D2025303227
:1035B000780A00006461746120253032782025305B
:1035C00032782025303278204368736D20253032E0
:1035D000780A000010B510480088401C102803DD50
:1035E0000EA000F0A3FA10BD0B4800881749097817
:1035F00088420CDD154802780078401C134B187087
:103600000548001D815C1248FFF786FE02E000209D
:103610000E49087000BFE6E7F20200205638353345
:10362000302073656E64206461746120746F206360
:10363000686172676520706564657374616C206988
:103640007320746F6F206C6F6E670A000401002096
:103650004018014010B510480088401C202803DDA8
:103660000EA000F063FA10BD0B48008817490978D6
:1036700088420CDD154802780078401C134B187006
:103680000548001D815C1248FFF746FE02E000205D
:103690000E49087000BFE6E7C002002056383533F7
:1036A000302073656E64206461746120746F2063E0
:1036B000686172676520706564657374616C206908
:1036C0007320746F6F206C6F6E670A000101002019
:1036D0002018014010B510488078C01C202803DD58
:1036E0000EA000F023FA10BD0B488078134909782A
:1036F00088420CDD114802780078401C0F4B18708E
:103700000548001D815C0E48FFF706FE02E0002020
:103710000A49087000BFE6E79C020020563835339E
:10372000302073656E642064617461206973207455
:103730006F6F206C6F6E670A00000000FD000020B4
:1037400000180140074808490860084640684008DA
:103750004000486003480860084640684008400050
:1037600048607047AA5555AA4040014010B5124C18
:1037700003202061606111A0A0611349E161012172
:10378000890221620021A1626162E1620BA02066D0
:103790000E4961661021A16600212167E16661671B
:1037A0000BA1E01DFCF766FE0AA12046FCF762FEB5
:1037B0002020A07110BD0000A04400205465726D4F
:1037C000696E616C000000004845002048490020F7
:1037D00052545400534547474552000010B5014626
:1037E0000A69CB689A4204D88C68641EE41AA0184F
:1037F00001E0D41A601E10BDFFB585B006460F4625
:103800000F9D0E9C002F01DA784200E038460390AD
:103810000120049007E007990398FCF7F3FD03905B
:103820000498401C0490079903988842F3DA04999D
:103830000898884201D908980490002C06D0002FDF
:1038400003DB04202840042800D1641E0220284005
:10385000002802D00898002815D0E807C00F0028DB
:1038600011D1002C0FD008E0641E2021304600F05A
:10387000D9F8F068002800DA04E0002C02D004989F
:10388000A042F1D300BFF06800283ADB002F05DA30
:103890007F422D21304600F0C5F807E00420284083
:1038A000042803D12B21304600F0BCF8F068002832
:1038B00027DB02202840022818D1E807C00F002883
:1038C00014D10898002811D1002C0FD008E0641EF4
:1038D0003021304600F0A6F8F068002800DA04E055
:1038E000002C02D00498A042F1D300BFF068002859
:1038F00007DB0195009439463046089B079A00F093
:1039000003F809B0F0BD0000FFB585B006461746C4
:103910001D460E9C0698029001200390019007E03E
:1039200039460298FCF758FD02900198401C01901E
:103930000298B842F4D20198854200D901950F98B7
:10394000C007C00F00281DD1002C1BD002210F98EA
:103950000840022804D1002D02D13020009001E05F
:103960002020009008E0641E3046009900F05AF8CC
:10397000F068002800DA04E0002C02D00198A04290
:10398000F1D300BFF068002848DB0FE0012D01D91A
:103990006D1E08E003990698FCF71EFD049004983C
:1039A000B84200D203E0039878430390EEE700BFEB
:1039B00000BF03990698FCF70FFD04900399049843
:1039C00048430699081A0690154A0498115C304637
:1039D00000F028F8F068002800DA07E0394603987C
:1039E000FCF7FAFC039003980028E2D100BF0F987F
:1039F000C007C00F002811D0002C0FD008E0641EB3
:103A00002021304600F00EF8F068002800DA04E0CB
:103A1000002C02D00198A042F1D300BF09B0F0BD44
:103A20004867000070B504460E46A568681C6168CA
:103A3000814206D320684655681CA060E068401C9F
:103A4000E0606168A06888420DD1A26821682069A1
:103A5000FEF7E8FDA168884203D00020C043E06083
:103A600001E00020A06070BDF7B582B004461746A3
:103A700000200190E56800BF206900900098A842EE
:103A800003D90098401B461E04E0A1680098281A3C
:103A9000401C0E1AA068401BB04201D9304601E01C
:103AA000A068401B0646BE4201D2304600E03846C0
:103AB00006466168481932460399FCF7B7FC01983D
:103AC00080190190039880190390BF1BAD19A0685D
:103AD000A84200D10025E560002FCDD1019805B0A6
:103AE000F0BDF7B582B004461546E668A068871BAE
:103AF000AF4208D9616888192A460399FCF796FCF9
:103B00007019E06010E0019761688819019A0399C3
:103B1000FCF78CFCE81B0190039AD1196068019AAC
:103B2000FCF784FC0198E06005B0F0BD0FB410B55F
:103B300003A9044B044A029800F050F910BC08BCD9
:103B400004B01847AD460000B40100202021020C4B
:103B500001D010211046020A01D01046083902098E
:103B600001D01046091F820801D01046891E420864
:103B700001D0881E7047081A704730B47446641E1E
:103B80002578641CAB4204D3635D5B00E31830BC52
:103B900018471D46F8E70000002805DBC206D20ED4
:103BA00001219140014A11607047000080E200E06D
:103BB000002809DB00BF00BFC206D20E01219140E0
:103BC000024A116000BF00BF7047000000E100E042
:103BD00010B5002819DB1A4A03231B02D2188308E8
:103BE0009B00D2588307DC0EFF23A3409A438B0728
:103BF0001B0E8407E40EA3401A43114B0324240236
:103C00001B198408A4001A5118E00E4A03071B0F61
:103C1000083B9B089B00D2588307DC0EFF23A34080
:103C20009A438B071B0E8407E40EA3401A43054BEF
:103C30000407240F083CA408A4001A5110BD00007A
:103C400000E100E01CED00E002E008C8121F08C11E
:103C5000002AFAD170477047002001E001C1121F0D
:103C6000002AFBD170470000F0B51FB486B0099858
:103C7000089A030D0021024314D05148514A1818E4
:103C8000504305141198012810981AD0281A401C86
:103C900000264D4F4D49009601910490002812DAFC
:103CA000444211E01198012449A3012801D1109840
:103CB000C1430698119A84600360C26041600BB0F2
:103CC000F0BD4042E4E70446210500203F4A001CC5
:103CD00051410391029012E0E00707D032463B4683
:103CE00001990098FCF782FC0191009032463B4616
:103CF00010461946FCF77AFC06460F466410002C65
:103D0000EAD10498039B0028029A0999089806DAD8
:103D1000FCF76CFC019B009AFCF768FC05E0FCF7E3
:103D2000CDFC019B009AFCF7C9FC04460E4600221C
:103D3000284BFCF70DFE03D80020C043014607E0E6
:103D40000022254B20463146FCF79EFBFCF7E0FDA8
:103D5000102409E0002C0ADB0A220023FCF726FDD0
:103D6000079B30321A55641E02460A43F2D11122D3
:103D7000641C079B121B1C19119B012B03D00123F0
:103D800008430ED10AE0084304D01120109000200F
:103D9000119077E71098151A6D1E0BE0109882426B
:103DA00002DD00236D1C03E0824201DA00236D1E58
:103DB000002BEED0069811998260C16030C07EE77A
:103DC00001FCFFFF104D0000000014400000F03F18
:103DD000300000000000F0430000E03FFFB597B066
:103DE0000646002518E2252877D100242746FD49FC
:103DF000049400E00443761C32780120203A90407D
:103E00000842F7D130782A280ED0022230780146B5
:103E10003039092916D804990A23594330394018F2
:103E20001443761C0490F1E7189802C80491189086
:103E3000002904DA01204003044348420490022090
:103E40000443761C30782E2814D104200443707863
:103E5000761C2A2809D11898761C80C8189009E089
:103E60000A214F43303FC719761C3078014630395C
:103E70000929F5D930786C2810D006DC4C281AD0E6
:103E800068280ED06A2817D104E0742813D07A2845
:103E900012D110E00120400504430CE00121090586
:103EA00001E0032109050C437178814203D101200F
:103EB00000052418761C761C3078119066280BD0EB
:103EC00013DC58287DD009DC00287BD04528F6D0AB
:103ED0004628F4D047281AD1A5E118E0632835D048
:103EE000642870D0652812D19DE170286CD008DC60
:103EF0006728F1D069287BD06E280DD06F2806D1B5
:103F0000BAE073282ED0752871D0782859D01A9A23
:103F1000199990476D1C7EE16002400F022809D07C
:103F200003280DD00428189801680DD00D60001DDD
:103F3000189070E11898EA1701680D604A60F6E77A
:103F4000189801680D80F2E70D70F0E718986A463E
:103F500001781172001D18900020507202A8009084
:103F6000012005E0189802C8189000200091C04375
:103F700061070DD5002101E00199491C0191B94269
:103F800012DA8142F8DB009A515C0029F4D10BE08F
:103F9000002101E00199491C01918142FADB019A5B
:103FA0000099895C0029F5D1019904981A9B471A58
:103FB00021463846199A00F097FA01994019451898
:103FC0000BE04FE02CE113E04EE000980099007800
:103FD000491C00911A9A199990470198401E019026
:103FE000401CF2D1214638461A9B199A10E137E05D
:103FF0000A200021009001916002410F022907D0A0
:10400000189A01CA1892C2179446032908D00AE0E8
:104010001898C01DC108C90005C91891944607E049
:1040200000B2C2179446042902D140B2C1178C468F
:1040300000226146944506DA0A4600214042914139
:104040008C462D2102E0210504D52B216A461173EF
:10405000012103E0E10701D02021F7E7029155E0BB
:104060000A200AE0102008E010200090002104201F
:1040700004430191082703E00820002101910090EA
:104080006002410F022907D0189A01CA1892002233
:104090009446032908D008E01898C01DC108C9003B
:1040A00005C91891944603E080B2042900D1C0B23A
:1040B00000210291210729D51199702906D0009A73
:1040C0001021019B4A401A4305D00EE040216A4668
:1040D0001173012108E06146014306D030216A4690
:1040E00011731199517302210291009A0821019BC9
:1040F0004A401A430AD16146014301D1610705D5FF
:1041000030216A46117301217F1E029111995829AD
:1041100004D035A10E910DA90D910DE037A1F9E75D
:104120006146019B009AFCF741FB0E9B8C469B5C11
:104130000D9A521E0D92137061460143F0D10D98F5
:1041400005A9081A20300190600703D5012000045A
:10415000844300E001270198874201DD381A00E01E
:104160000020019900904118029809180498401AFB
:104170000490E00306D421461A9B199A049800F093
:10418000B3F94519002706E003A81A9AC05D1999EA
:1041900090476D1C7F1C02988742F5DBE0030CD52D
:1041A00021461A9B199A049800F09EF9451904E0DB
:1041B0001A9A3020199990476D1C0099481E00905A
:1041C0000029F5DC08E00D980D990078491C0D9147
:1041D0001A9A199990476D1C0199481E019000295F
:1041E000F1DC63E1092801003031323334353637F0
:1041F0003839616263646566000000003031323333
:1042000034353637383941424344454600000000D2
:1042100000F05AF94519761C3078002800D0E2E504
:1042200028461BB0F0BD600700D406271898C01DB3
:10423000C108C90048680A680831C30FDB07189134
:10424000190001D09CA108E0210501D59BA104E043
:10425000E10701D09AA100E09AA1430011985B0800
:10426000109165280CD006DC452809D046281DD0C1
:10427000472841D141E0662818D067283CD13CE06E
:104280000021112F01DB112000E0781C019100902A
:1042900008A911A8FFF7E8FC139905910021119ACC
:1042A00015927F1C12980197009150E00120C007E1
:1042B00003900120019008A9009711A8FFF7D4FCF2
:1042C000139A149905920022119B0092129815934B
:1042D000059A0192002901D0104602E0791C40188D
:1042E0000190381A01D5019804E04042401E009028
:1042F000781C0190C01B029043E0012F00DA0127D7
:104300000021112F01DD112000E0384601910090BD
:1043100008A911A8FFF7A8FC13990591119A00218B
:10432000129815920091019721070CD40599B94272
:1043300001DB019900E00191012904DD159A491E74
:10434000515C302906D0B84201DA011D05DA01219D
:10435000029115E00199491EEDE7002805DC00995E
:10436000411800910199091A03E0019A411C9142F8
:1043700000DD01910099401A401C02900120C00705
:104380000390200706D402990198814202DB0020A5
:10439000C043029000206946C87707AF0121039807
:1043A0000337C907884224D0022011902B20129095
:1043B000039800280CDA404203902D20129007E069
:1043C0000A210398FCF708F830317F1E03903970FA
:1043D0001199481E11900029F2DC03980028EFD1B2
:1043E000791E129808703078202108404530BF1E91
:1043F000387006A8C01BC01D0390109800780028D4
:1044000000D00120019941180298C017091803989B
:1044100009180498401A401E0490E00306D421466F
:104420001A9B199A049800F05FF8451910980078C3
:10443000002803D01A9A199990476D1CE00324D5DF
:1044400021461A9B199A049800F04EF845191CE071
:104450000098002807DB00990598884203DD15982D
:10446000405C199901E0199930201A9A90470098F8
:104470006D1C401C00900298401E0290002804D140
:104480001A9A2E20199990476D1C0199481E019087
:104490000029DDDC05E038781A9A7F1C19999047CD
:1044A0006D1C0399481E03900029F4DC21461A9BD9
:1044B000199A0498ACE600002D0000002B000000C3
:1044C0002000000000000000F8B5044600251E464C
:1044D0001746880404D405E039462020B0476D1CF7
:1044E000641EF9D52846F8BDFFB50446002581B005
:1044F0001E46C80301D5302700E02027880404D5D4
:1045000005E038460399B0476D1C641EF9D528466E
:1045100005B0F0BD10B586B00446FCF7F1FA0120F5
:10452000C00701900020029005940490039001A818
:10453000FCF798FB0120FCF75FFA01210846FCF725
:104540004FFB1820FDF798F81820FDF7B9F8012067
:10455000FCF790FAFCF79CFC06B010BD00BFFEE72C
:1045600010B502460B460021002000BF04E0545C59
:104570002418E0B24C1CE1B29942F8DB10BD0000F7
:1045800010B5FDF76BF804467D21C9002046FBF706
:1045900023FF054908607D21C90003480068FBF737
:1045A0001BFF0249086010BDF4000020F800002045
:1045B000012101200D4A1268002A01D0002013E0D9
:1045C0000B4A1268002A01D000200DE0094A126847
:1045D000002A01D0002007E0074A1368074A126842
:1045E000521E934200D1022070470000D4030020E5
:1045F0003801002034010020FC03002024010020A9
:1046000000B585B00020029008200490202003907F
:1046100002A90E48FDF768FD00200C4948610421FD
:104620000220FDF7C3FEC0200190094800906946B2
:104630000648FDF759FE0548FDF7C0FD012202219D
:104640000248FDF717FF05B000BD0000002901403A
:10465000FE1F000000B585B0C02002900820049025
:104660001020039002A90E48FDF73EFD022105200F
:10467000FDF79CFEE020019069460948FDF7D2FD58
:104680000848074920394863074888630448FDF70C
:1046900095FD012211460248FDF7ECFE05B000BD74
:1046A00020290140FFFF0000FE3F0000064A106283
:1046B00000BF054A526A20231A40002AF9D020225E
:1046C000014B5A6270470000801801400148007891
:1046D000704700000801002000B585B0002002905E
:1046E000082004901020039002A90F48FDF7FCFC5D
:1046F00002210D20FDF75AFEE020019069460A488C
:10470000FDF790FD01208002074920394863802091
:1047100088630548FDF752FD012211460248FDF766
:10472000A9FE05B000BD00006029014010B50024BD
:10473000FFF708F8FDF736F8FDF776FA022120209A
:10474000FDF710FC2020FDF7C5FA02214020FDF7FF
:1047500009FC4020FDF7BEFA02218020FDF702FC93
:104760008020FDF7B7FA02210820FDF7FBFB0820A7
:10477000FDF7B0FA01210846FDF728FB00BF012034
:10478000C003FCF7F3FF0028F9D100210846FCF72D
:10479000BBFFFFF7F5FE0121C9031048FDF7EAF959
:1047A0000F480068FFF7B6FEFFF796FFFFF752FFCE
:1047B000FFF726FF00F066FE00F08EFE00F024FFFB
:1047C00000F0D2FFFEF7DEFAFEF7B2F8FEF7BAFF0E
:1047D00000F00CFE00F0D0FD002010BD6000004095
:1047E000D40000200EB5002000900190029000F04F
:1047F00017F807E07D20C00001F0C2F902A10020F7
:10480000FDF776FFF6E700006D657373616765205D
:104810007461736B2072756E6E696E670D0A0000AD
:1048200010B500220C21102001F050FB0149086056
:1048300010BD0000B0010020F8B505460E46214825
:10484000076821480068001D00F09CFF681C0028D4
:104850001CD1002E1AD01D4948681B490968886080
:10486000194982680968CA6017490968091D826880
:10487000516015490968091D8160144A1249096887
:104880004A6111460968491C11601AE07C190E48FA
:1048900000684460BC4207D20B480168091D0C48FF
:1048A000006800F0ADFF0CE007480168091D0948E9
:1048B000006800F0A5FF08480068844201D206485D
:1048C0000460F8BD2801002014010020FC03002032
:1048D0001C010020180100204401002010B50446EE
:1048E00000F0B6FF2D480068401C2C4908602C4899
:1048F0000068002808D12A4804600846006801289A
:104900000ED100F01BFA0BE026480068002807D102
:1049100023480068C06AE16A884201D820480460E0
:1049200021480068401C2049086008460068E06390
:104930001E49E06A0968884202D91C49E06A086099
:104940001422E16A51431A4A89184868A0608268B3
:10495000E260211D8268516081601422E16A514346
:10496000134A8A1862611422E16A5143104A51586D
:10497000491C1423E26A5A430D4B995000F076FF0C
:1049800008480068002807D005480068C06AE16A46
:10499000884201D201F098F810BD000024010020E7
:1049A0001401002030010020400100202C010020D3
:1049B0004803002008B500F04BFF134800680028AA
:1049C0001ED1124800F00CFF114800F009FF0F48FB
:1049D000104908600E481049086000200F4B104A2B
:1049E0000C210090022001F0A5FA07490860084652
:1049F0000068002804D00BA10348006801F070F89B
:104A000000F034FF08BD00005C010020100400200D
:104A10002404002054010020580100203804002004
:104A200088040020546D72510000000010B516E09B
:104A300000F00EFF0C48C068C468201D00F0A2FE04
:104A40000A480068401E0949086009480068401E7D
:104A50000749086000F00AFF204600F021F80448EA
:104A600000680028E4D110BDE803002024010020E4
:104A70002001002070B504460D46206C00280ED0A1
:104A8000216CE0684118E160A168E068884201D3C8
:104A90002168E1602846226CE168FBF7C7FC70BD25
:104AA00010B504465120005D002806D1206B00F0AF
:104AB000F1FE204600F0EEFE13E05120005D0128DB
:104AC00003D1204600F0E6FE0BE05120005D0228F5
:104AD00001D1012000E00020002802D172B600BF01
:104AE000FEE710BD00210E4A1268002A00D0012105
:104AF0000C4A1268D26A002A01D000200EE00A4A4D
:104B00001268012A01D9002008E0002901D0002004
:104B100004E0064A1268064B1B68D01A7047000072
:104B20002C01002014010020480300204401002033
:104B3000280100200146094A12681268002A01D1A2
:104B4000012200E000220A600A68002A04D1034A18
:104B50001268D268106800E00020704754010020FD
:104B600030B501239B0317484407640F002C05D080
:104B7000C01DC008C000134C041B1B1B0246124C76
:104B800022600024104D6C60D0180838C008C000A6
:104B90000E4C206000240D4D2D686C600B4D2D686F
:104BA0002C601146441A4C60084C24680C60084D77
:104BB0004C682C60074D4C682C600124E407064DBE
:104BC0002C6030BDA004002078010020800100206E
:104BD00088010020840100209401002000BFFFF71D
:104BE00025FF14480068012801D900F06DFF00F08E
:104BF000F5FDFFF777FF0446022C19D301F002F907
:104C00000D4800680D490968884201D3012000E081
:104C10000020002802D172B600BFFEE7FFF762FF56
:104C20000446022C02D3204600F0ACFE01F0A6FCA4
:104C3000D5E700004803002044010020280100209F
:104C4000FFB581B006460D4617460A9C002D01D1DE
:104C5000246000E02760E66325640121204601F01E
:104C6000A3F94C210498085505B0F0BDFFB581B0FB
:104C70000F460A9E0C9C039A9100A522206BFBF71D
:104C8000E7FB216B0398401E8000081800900098F5
:104C9000C008C000009000984007400F002801D1D4
:104CA000012000E00020002802D172B600BFFEE71C
:104CB000002F11D0002508E0795D204634304155A1
:104CC000785D002800D102E06D1C082DF4D300BFF0
:104CD00000213B20015502E0002134200155052E22
:104CE00001D2012000E00020002802D172B600BFEE
:104CF000FEE7052E00D30426E66266640020A06469
:104D0000201D00F07AFD2046183000F076FD246169
:104D10000520801BA06164620021E16450200155E0
:104D2000049A0199009800F0FBFA20600B98002883
:104D300001D00B98046005B0F0BD000010B5002450
:104D400006E0142161430E4A881800F049FD641CF6
:104D5000052CF6D30B4800F043FD0B4800F040FD56
:104D60000A4800F03DFD0A4800F03AFD094800F00D
:104D700037FD04480849086003480849086010BD29
:104D800048030020AC030020C0030020D40300200F
:104D9000E8030020FC030020180100201C01002073
:104DA00010B50146164800E0006803688B42FBD34B
:104DB000024643689B188B4204D143684C681B1918
:104DC000436001460A464B689B180468A34211D110
:104DD0000C4C03682468A34208D04B6804686468DC
:104DE0001B194B6003681B680B6005E0054B1B68D3
:104DF0000B6001E003680B60884200D0016010BDC9
:104E00007801002080010020F8B504460D461646C2
:104E10001F460020009065602461B5420CD8F01B4D
:104E2000A169884202D30120009011E0211D0948A8
:104E3000006800F0E5FC0BE0BE4204D2BD4202D3A4
:104E40000120009004E0211D0348006800F0D8FC18
:104E50000098F8BD580100205401002070B50546A7
:104E600000F0F6FCA86B002801D1012400E000242A
:104E700000F0FCFC204670BD70B505460E460E489D
:104E80000068C068C468201D00F07CFC2820005D1C
:104E900004210840002805D032462946204600F06B
:104EA000D1F805E02820005DFE21084028210855A2
:104EB0002046216A884770BD540100207FB57EE0FE
:104EC000019800287BDB039C6069002801D1012048
:104ED00000E00020002802D1201D00F053FC6846AD
:104EE00000F0DEF8054601980300FEF746FE0A666C
:104EF00006083139550709323A6600BF00BF00BFC6
:104F00002820005D01210843282108550298A26944
:104F1000811803462A462046FFF776FF002816D060
:104F20002820005D04210840002807D00298A269CB
:104F300081182A46204600F085F805E02820005D0B
:104F4000FE210840282108552046216A884735E07F
:104F500000BF2820005DFE210840282108552DE0D3
:104F600000BF2820005D0121084328210855029830
:104F7000A061A069002801D0012000E000200028E5
:104F800002D172B600BFFEE7A06941192B462A463E
:104F90002046FFF739FF11E02820005D022108407C
:104FA000002803D1204600F075FC05E02820005DB4
:104FB000FE2108402821085500E000BF00BF002264
:104FC00001A90448006801F04AF8002800D077E7FA
:104FD0007FBD00005C010020F8B505460C4600F0DE
:104FE00011FF684600F05CF806460098002822D1C0
:104FF000002C08D1B54206D801F0C0FA3146284647
:10500000FFF73AFF19E0002C08D00C480068006850
:10501000002801D1012000E000200446A91B2246FF
:105020000748006800F086FD01F0A8FA002804D1C6
:1050300000F04AFD01E001F0A1FAF8BD580100209E
:105040005C01002070B504460D46164604E0A069D8
:1050500045192046216A8847A06941192B463246E6
:105060002046FFF7D1FE0028F1D170BD0A48006844
:105070000068002801D1012000E00020002804D0B1
:105080000020C0430549086005E003480068C06887
:1050900000680249086070471801002044010020A0
:1050A00070B5044601F00AF90546074800688542D4
:1050B00004D200F00BF80120206001E00020206005
:1050C00001480560284670BD6401002070B508E005
:1050D0000D480068C06804680021C9432046FFF7F6
:1050E000CBFE094800680068002801D1012000E0DB
:1050F00000200028ECD004480568044800680249F4
:1051000008600248056070BD54010020580100206D
:1051100007480068401C002801D1012000E0002061
:10512000002802D172B600BFFEE772B600BFFEE7EC
:105130006801002008B500BF6846FFF7FBFC044685
:1051400020460099FFF748FFFFF7B8FEF4E770B577
:10515000044600F07DFB4520055713E0606A0028F7
:1051600001D1012000E00020002808D12046243091
:1051700001F07EF9002803D000F08EFD00E003E08E
:10518000681E45B2002DE9DC00BF0021C94345205F
:10519000015500F06BFB00F05BFB4420055713E06A
:1051A0002069002801D1012000E0002000280AD158
:1051B0002046103001F05CF9002801D000F06CFDB1
:1051C000681E45B200E001E0002DE9DC00BF0021CF
:1051D000C9434420015500F049FB70BDF8B50446B1
:1051E0000020009000F00EFE47480068002801D122
:1051F000FFF7B6FC454800682040002873D1002C1A
:1052000021D020460830A0421DD908346007400F45
:10521000002819D06007400F0821081A0019A04281
:105220000FD96007400F081A04196007400F0028C3
:1052300001D1012000E00020002805D172B600BF96
:10524000FEE7002400E00024002C4CD03048006829
:10525000844248D82F4E3046056801E02E462D681E
:105260006868A04202D228680028F7D12648006862
:10527000854238D03068083000902868306068680F
:10528000001B102813D92F197807400F002801D1CF
:10529000012000E00020002802D172B600BFFEE726
:1052A0006868001B78606C603846FFF779FD184924
:1052B00068680968081A16490860084600681649AF
:1052C0000968884203D212480068134908600F49F0
:1052D0006868096808436860002028600F48006813
:1052E000401C0E49086001F049F900984007400F42
:1052F000002801D1012000E00020002802D172B670
:1053000000BFFEE70098F8BD800100209401002056
:105310008401002078010020880100208C010020F9
:10532000001F01231B060360001F0160001F034BC9
:1053300003601438026020387047000011510000EB
:1053400007E07D20C00000F01BFC02A10020FDF75B
:10535000CFF9F6E773656E736F72207461736B201B
:1053600072756E6E696E670D0A0000000149087063
:1053700070470000080100200EB50A480A490322C0
:105380000023009201910290802208A10B4800F0B6
:105390003FFF0B49086008460068002801D000F074
:1053A000C3FC0EBD584D0020584900204170705478
:1053B00061736B437265617465000000E10E00006B
:1053C0009801002010B5012149020248FCF7D2FBE8
:1053D00010BD00004000004010B501214902024804
:1053E000FCF7C4FB10BD0000400000401CB50121CB
:1053F00049020948FCF7BEFB012040020090022050
:10540000019069460448FCF7B7FA012149020248B5
:10541000FCF7B0FB1CBD00004000004013E0FFF7AC
:10542000DBFFFF20F53000F0ABFB07A10020FDF70C
:105430005FF9FFF7C7FFFF20F53000F0A1FB0AA1DD
:105440000020FDF755F9EAE76C6564315F7461731C
:105450006B2072756E6E696E672C4C4544315F4FE0
:1054600046460D0A000000006C6564315F7461738C
:105470006B2072756E6E696E672C4C4544315F4FC0
:105480004E0D0A000EB50A48FDF772FB0020019090
:1054900002900848009069460548FDF71FFC01216D
:1054A0000348FDF7D7FB00210E20FCF72DF90EBDB8
:1054B00000280140AC1F000010B501210148FDF794
:1054C00013FB10BD0028014010B500210148FDF775
:1054D0000BFB10BD002801400EB50C48FDF748FB42
:1054E0000020019002900A48009069460748FDF7A5
:1054F000F5FB01210548FDF7ADFB00210F20FCF76E
:1055000003F901210148FDF7EFFA0EBD2028014003
:10551000583F00000020704700B50F48007F552815
:1055200017D10D48407F552813D10B48817F80202B
:1055300001430948807F81420BD1032106481C307A
:10554000FFF70EF801460448C07F814201D10120D7
:1055500000BD0020FCE70000E801002030B508484D
:105560008478E01CC1B20648FEF7FAFF05460448FD
:10557000E11C405CA84201D1012030BD0020FCE7C5
:10558000340200200020704707E07D20C00000F0BA
:10559000F7FA02A10020FDF7ABF8F6E755415254A7
:1055A000207461736B2072756E6E696E670D0A00F0
:1055B00010B5C0210E48FAF752FF0E480C4908609A
:1055C0000C48203008630B48403008660949A03178
:1055D0000748803001610848054948600749044888
:1055E00041630749416607499030416010BD0000A2
:1055F000B8010020001801401555000019550000A1
:105600005D5500008555000000B587B00C20019065
:1056100001200003009069465048FCF7DBF8504831
:10562000FDF7AAFC02A8FDF7B1FEE12040020690BA
:105630000320029002A94A48FDF78EFD01220821AD
:105640004748FDF72DFD012211024548FDF728FDD1
:1056500000210620FCF758F80C200190012040039F
:10566000009069463D48FCF7B5F83D482030FDF70D
:1056700083FC02A8FDF78AFE4B20800106900320E0
:10568000029002A936482030FDF766FD012208216C
:1056900033482030FDF704FD01221102304820304C
:1056A000FDF7FEFC00210720FCF72EF80C200190EE
:1056B00001208003009069462848FCF78BF82848B1
:1056C0004030FDF759FC02A8FDF760FE4B20C001F9
:1056D00006900320029002A921484030FDF73CFDCE
:1056E000012208211E484030FDF7DAFC0122110298
:1056F0001B484030FDF7D4FC00210820FCF704F8DB
:105700000C2001900220009069461648FCF734F9FD
:105710001348A030FDF730FC02A8FDF737FEE1206A
:10572000400206900320029002A90D48A030FDF728
:1057300013FD012208210A48A030FDF7B1FC012227
:1057400011020748A030FDF7ABFC00210B20FBF74E
:10575000DBFFFFF72DFF07B000BD00001040014048
:10576000001801402000004010B508210348FAF756
:1057700076FE034800210160416010BD86000020D4
:105780003400002001460A694B68886898608B687D
:10579000486858605068884201D18868506000208D
:1057A00008611068401E106010687047034B03606A
:1057B000034B0B60FF23013313607047005600203A
:1057C000004E0020034B0360034B0B60FF230133AB
:1057D00013607047545600200052002030BF7047BD
:1057E0000146083141600021C9438160014608310A
:1057F000C1600161002101607047002101617047B3
:1058000010B502460B685C1C002C01D1106907E042
:105810001046083000E04068446824689C42FAD989
:1058200044684C604C68A160886041600A611468FB
:10583000641C146010BD42684A6093688B60936872
:1058400059609160086103685B1C03607047000049
:1058500072B605480068401C03490860BFF34F8FCB
:10586000BFF36F8F70470000680100200848006890
:10587000002802D172B600BFFEE705480068401E4E
:105880000349086008460068002800D162B67047E6
:105890006801002070B506463546002E3AD0083D16
:1058A0002C461D49606809680840002801D0012085
:1058B00000E00020002802D172B600BFFEE7206899
:1058C000002801D1012000E00020002802D172B69A
:1058D00000BFFEE71049606809680840002819D039
:1058E0002068002816D10C49606809688843606008
:1058F00000F088FA0949606809684018074908609B
:105900002046FFF74DFA06480068401C044908602D
:1059100000F034FE70BD00009401002084010020DE
:105920009001002010B57D21C90010480068FAF7E9
:1059300053FD0F490860084601680E48FAF74CFD10
:105940000D4908602D200D49086000200C490861B0
:1059500088617D21C90005480068FAF73DFD401EB9
:10596000074948610720086110BD00004000002081
:105970006C010020FFFFFF00700100207401002077
:1059800000E000E0F8B504464B480068844201D9C5
:10599000494804684948006940084000474908618F
:1059A00008468169601E464A126850430D184548F2
:1059B0000068854202D9434800682D1A72B6BFF3C9
:1059C0004F8FBFF36F8FFEF7F3FD00280FD13B48D9
:1059D00080693A494861084600690121084337490E
:1059E000086137480068401E486162B662E033488B
:1059F000456100203149886108460069012108435A
:105A00002E4908610094009C002C04D0BFF34F8FF6
:105A100030BFBFF36F8F62B6BFF34F8FBFF36F8F8F
:105A200072B6BFF34F8FBFF36F8F06202349086113
:105A300008460069012109040840002815D02049C2
:105A40000968491E1D4A9269AA1A881A1D490968DF
:105A5000884203D31A490968884202D9184909685B
:105A6000481E16494861661E12E0154800686043EA
:105A700012498969471A124801683846FAF7ACFC9E
:105A80000646701C0E4909684843C01B0B49486113
:105A900000200A4988610846006901210843074936
:105AA0000861304600F094F905480068401E03493B
:105AB000486162B6F8BD00007001002000E000E01F
:105AC0006C01002074010020012000070349486098
:105AD000BFF34F8FBFF36F8F7047000000ED00E002
